:100000000C94E0000C94C30A0C949C0A0C94080114
:100010000C9408010C9408010C9408010C9408013C
:100020000C9408010C9408010C9408010C9408012C
:100030000C9408010C94EA0A0C9408010C94080131
:100040000C94520A0C9408010C9408010C940801B9
:100050000C9408010C9408010C9408010C940801FC
:100060000C9408010C94080100407A10F35A00A087
:10007000724E18090010A5D4E80000E87648170071
:1000800000E40B54020000CA9A3B000000E1F505B1
:10009000000080969800000040420F000000A086FB
:1000A00001000000102700000000E803000000002D
:1000B0006400000000000A000000000001000000D1
:1000C00000002C76D888DC674F0823DFC1DFAE59EB
:1000D000E1B1B796E5E3E453C63AE651997696E87E
:1000E000E6C28426EB898C9B62ED407C6FFCEFBC02
:1000F0009C9F40F2BAA56FA5F490055A2AF75C932D
:100100006B6CF9676DC11BFCE0E40D47FEF520E662
:10011000B500D0ED902E0300943577050080841E45
:10012000080000204E0A000000C80C333333330FA0
:10013000986E12831141EF8D2114893BE65516CF3D
:10014000FEE6DB18D1844B381BF77C1D901DA4BB49
:10015000E424203284725E228100C9F124ECA1E5FE
:100160003D2700000000240027002A0000000000B6
:10017000250028002B000000000023002600290095
:10018000040404040404040402020202020203033D
:100190000303030301020408102040800102040845
:1001A00010200102040810200000000800020100D5
:1001B000000304070000000000000000270D8A0D66
:1001C00011241FBECFEFD8E0DEBFCDBF11E0A0E00D
:1001D000B1E0E4EAFAE202C005900D92A43EB10754
:1001E000D9F723E0A4EEB1E001C01D92A731B20718
:1001F000E1F710E0CFEDD0E004C02197FE010E94AE
:100200004413CE3DD107C9F70E94110B0C9445153C
:100210000C940000833081F028F4813099F0823012
:10022000A9F008958730A9F08830C9F08430B1F47E
:10023000809180008F7D03C0809180008F778093B4
:100240008000089584B58F7784BD089584B58F7D2F
:10025000FBCF8091B0008F778093B000089580919C
:10026000B0008F7DF9CFCF93DF93282F30E0F901D5
:10027000E855FE4F8491F901EC56FE4FD491F901F7
:10028000E058FE4FC491CC23A1F081110E940A01D5
:10029000EC2FF0E0EE0FFF1FEA58FE4FA591B4914E
:1002A000EC91ED2381E090E009F480E0DF91CF91C3
:1002B000089580E090E0FACF1F93CF93DF93282F2B
:1002C00030E0F901E855FE4F8491F901EC56FE4FFC
:1002D000D491F901E058FE4FC491CC23A9F0162F18
:1002E00081110E940A01EC2FF0E0EE0FFF1FE4598C
:1002F000FE4FA591B4918FB7F894EC91111108C0FD
:10030000D095DE23DC938FBFDF91CF911F910895AD
:10031000DE2BF8CFCF93DF9390E0FC01EC56FE4F3D
:10032000249180589E4FFC0184918823C9F090E06D
:10033000880F991FFC01EE59FE4FA591B491FC0165
:10034000E459FE4FC591D49161110DC09FB7F89447
:100350008C91209582238C938881282328839FBFAA
:10036000DF91CF910895623051F49FB7F8943C919A
:10037000822F809583238C93E8812E2BEFCF8FB72C
:10038000F894EC912E2B2C938FBFEACF3FB7F894C3
:100390008091630290916402A0916502B09166021F
:1003A00026B5A89B05C02F3F19F00196A11DB11DD0
:1003B0003FBFBA2FA92F982F8827BC01CD01620F0C
:1003C000711D811D911D42E0660F771F881F991FC7
:1003D0004A95D1F708958F929F92AF92BF92CF9294
:1003E000DF92EF92FF920E94C6014B015C0184E014
:1003F000C82ED12CE12CF12C0E94C6016819790974
:100400008A099B09683E734081059105A8F321E0A4
:10041000C21AD108E108F10888EE880E83E0981E20
:10042000A11CB11CC114D104E104F10429F7FF900F
:10043000EF90DF90CF90BF90AF909F908F900895F6
:100440002FB7F89460915F02709160028091610211
:10045000909162022FBF08950895CF92DF92EF929C
:10046000FF922091050130910601409107015091C2
:10047000080160EC71EE84E69CE40E9474126B014A
:100480007C016091090170E090E080E00E94E11041
:100490009B01AC01C701B6010E9474120E94E612D2
:1004A000AB01BC01DC01CA01E3E0880F991FAA1F60
:1004B000BB1FEA95D1F7009721E0A207B10540F4F0
:1004C00021E020936F0290936E0280936D020DC025
:1004D000009728E0A207B105D0F482E080936F0274
:1004E0007F7150936E0240936D0280916D029091E6
:1004F0006E02909387008093860080916F028061E6
:1005000080938100FF90EF90DF90CF900895009747
:1005100020E4A207B10558F423E020936F0246E0DF
:10052000B695A795979587954A95D1F7CCCF009723
:10053000A10521E0B20740F424E020936F02892F47
:100540009A2FAB2FBB27BFCF0097A10524E0B2079E
:1005500058F425E020936F022AE0B695A795979569
:1005600087952A95D1F7AFCF85E080936F028FEF03
:100570009FEFA9CFEF92FF920F931F93CF93DF933B
:10058000EC01062F18E083E0E82EF12C60E0888172
:100590000E945C01602F617089810E945C01C7012B
:1005A0000197F1F761E088810E945C01C701019722
:1005B000F1F70695115051F760E088810E945C01C7
:1005C00061E089810E945C0161E088810E945C0198
:1005D00060E089810E948A0189810E943301182F7D
:1005E000811108C060E089810E948A0160E08981F0
:1005F0000E945C0161E089810E948A01812FDF9164
:10060000CF911F910F91FF90EF900895CF93DF93BB
:10061000EC0160E088810E945C0160E089810E94B9
:100620005C0161E088810E945C0183E090E00197B9
:10063000F1F761E08981DF91CF910C945C01CF9358
:10064000DF93EC0161E088810E945C0161E08981B7
:100650000E945C0183E090E00197F1F760E08981FE
:10066000DF91CF910C945C019F92AF92BF92CF9299
:10067000DF92EF92FF920F931F93CF93DF935C0172
:10068000962E8A016901EC012696CE010E941F0375
:1006900060E4CE010E94BA02CE010E940603CE01A0
:1006A0000E941F0360ECCE010E94BA02780110E0A4
:1006B00000E00C151D05B9F0F70161917F01F5010E
:1006C0008285811109C0818590E0002E02C0969537
:1006D00087950A94E2F780FD6068CE010E94BA0215
:1006E0000F5F1F4FE6CFCE010E940603CE010E948E
:1006F0001F03692DCE010E94BA02CE01DF91CF9176
:100700001F910F91FF90EF90DF90CF90BF90AF902F
:100710009F900C9406032091820280917B0290911D
:100720007C0230E08217930708F49C014091770225
:100730005091780260917F0287E792E00C94340335
:10074000CF93DF93D82F60E085E00E945C01C8E082
:100750006D2F617084E00E945C01D69561E086E0B7
:100760000E945C0160E086E00E945C01C15081F75C
:1007700061E085E0DF91CF910C945C011092F10172
:1007800080EF0E94A0030E94EB0180E00C94A00384
:10079000CF93C091F101CF5FC093F1018FE00E9430
:1007A000A0030E94EB0180E00E94A00380910A0157
:1007B00090910901899FC0011124C81719061CF0E6
:1007C000CF910C94BE03CF910895CF92DF92EF9218
:1007D000FF92CF93DF938091E801E9EEF1E0A5E984
:1007E000B1E030E020E041E050E060E070E0908176
:1007F0009F5F9193CD919C130EC0EF0121971882BA
:100800006A017B01022E04C0CC0CDD1CEE1CFF1C17
:100810000A94D2F78C292F5F3F4F2830310539F7E2
:100820000E94A0030E94EB0180E00E94A0031092AE
:10083000E801DF91CF91FF90EF90DF90CF90089586
:10084000FC0124813581409111035091120324173A
:100850003507E1F48081918160910D0370910E0361
:100860000097D1F061157105A1F4232BC1F0FC01B3
:10087000808190E008C0232B91F0FB01808190E003
:1008800091958195910921E0892B09F020E0822F33
:1008900008950E943515F7CF6115710561F721E0C4
:1008A000F6CF0F931F93CF93DF93EC01888199814B
:1008B000009759F02A813B812617370730F081E0F5
:1008C000DF91CF911F910F9108958B016F5F7F4F43
:1008D0000E946F14009759F0998388831B830A83C1
:1008E0002C813D81232B59F7FC011082E8CF80E059
:1008F000E7CFEF92FF920F931F93CF93DF93FB010C
:10090000E080F180E114F10441F480E0DF91CF91C7
:100910001F910F91FF90EF900895048115810115AB
:100920001105B1F0EC018C819D81080F191FB801F0
:10093000CE010E945104882341F3288139818C81A2
:100940009D81B701820F931F0E943E151D830C836A
:1009500081E0DCCFEF92FF920F931F93CF93DF9351
:1009600000D0CDB7DEB78C0169831A82FC01E48028
:10097000F580FFEFEF1AFF0AB7010E9451048823A8
:1009800081F0F8012081318184819581BE016F5F02
:100990007F4F820F931F0E943E15F801F582E4827B
:1009A00081E00F900F90DF91CF911F910F91FF90F9
:1009B000EF900895CF93DF93EC01888199810097A0
:1009C00011F00E94E613198218821D821C821B827C
:1009D0001A82DF91CF910895EF92FF920F931F93A8
:1009E000CF93DF93EC017B018A01BA010E9451048D
:1009F00081110BC0CE010E94DA04CE01DF91CF91AC
:100A00001F910F91FF90EF9008951D830C83B70104
:100A1000888199810E943E15F0CFFB010190002052
:100A2000E9F73197AF01461B570B0C94EC040F9379
:100A30001F93CF93DF938C0160EB71E087E792E027
:100A40000E940D05D0E0C0E0D80114968D919C91D4
:100A50001597C817D90790F58D919C91009769F06B
:100A60008C0F9D1FDC01EC91E7FF08C060E087E779
:100A700092E00E94AA042196E7CFE0E00E2E000C3F
:100A8000FF0BE958FD4F6689603889F780917B023A
:100A900090917C02009759F3E0917702F0917802EF
:100AA000309741F410927602E6E7F2E080818068A8
:100AB0008083E1CF0197E80FF91FF8CF10928C02E5
:100AC00010928B02DF91CF911F910F910895CF93D8
:100AD000DF93EC01FB018617970749F06081718174
:100AE0006115710541F0448155810E94EC04CE01ED
:100AF000DF91CF9108950E94DA04F9CFFC011182B1
:100B000010821382128215821482FB010190002050
:100B1000E9F73197AF01461B570B0C94EC04AF92E9
:100B2000BF92CF92DF92EF92FF920F931F93CF93DA
:100B3000DF936C015B017A0189012417350720F4EA
:100B40008F2D7901042F182F60EB71E0C6010E94F0
:100B50007E05D5011496CD91DC91EC16FD06E0F4EE
:100B60000C171D0708F4E801D501ED91FC911197D0
:100B7000EC0FFD1F108110826D917C916E0D7F1D19
:100B8000C60161157105A1F00E940D05F501808176
:100B90009181C80FD91F1883C601DF91CF911F9192
:100BA0000F91FF90EF90DF90CF90BF90AF9008959E
:100BB0000E94DA04EBCFFC0180819181009711F053
:100BC0000C94E6130895CF93DF93CDB7DEB72C973F
:100BD0000FB6F894DEBF0FBECDBF1A8219821C82F9
:100BE0001B821E821D82BC01CE0101960E946705F8
:100BF00089819A8198878F838B819C819A87898745
:100C00008D819E819C878B871A8219821C821B8210
:100C10001E821D82CE0101960E94DB05CE01079641
:100C20000E942004811124C0BE01695F7F4F8DE0C6
:100C300093E00E94670560EB71E0CE0101960E948F
:100C40007E0560EB71E0CE0101960E940D05BE01AC
:100C5000695F7F4FCE0101960E947904CE01019613
:100C60000E9417050E948B03CE0101960E94DB05AE
:100C7000CE0107960E94DB0587E792E02C960FB61F
:100C8000F894DEBF0FBECDBFDF91CF910895CF9313
:100C9000DF93CDB7DEB72C970FB6F894DEBF0FBE4B
:100CA000CDBFBC01CE0107960E947E05CE010796FE
:100CB0000E942004811124C0BE01695F7F4F8DE036
:100CC00093E00E94670560EB71E0CE0101960E94FF
:100CD0007E0560EB71E0CE0101960E940D05BE011C
:100CE000695F7F4FCE0101960E947904CE01019683
:100CF0000E9417050E948B03CE0101960E94DB051E
:100D0000CE0107960E94DB0587E792E02C960FB68E
:100D1000F894DEBF0FBECDBFDF91CF9108958091D3
:100D200000018130C9F482E0809300018BE8809358
:100D30007F028DE991E00E9447060E9420026C50DC
:100D40007E4F8F4F9F4F609367027093680280932E
:100D5000690290936A02089581E0809300018BE814
:100D600080937F0282EA91E0E6CF87EA91E00E94D9
:100D700047060E9420026C507E4F8F4F9F4F60931A
:100D80006702709368028093690290936A020895E3
:100D900080917202853028F4833030F4882321F06A
:100DA0000895853049F008950E94B506109200011B
:100DB0001092F1010C94BE030E94B506109200013E
:100DC0000E94BE031092E9011092EA011092EB0119
:100DD0001092EC011092ED011092EE011092EF01D1
:100DE0001092F0010895CF93DF9300D000D000D08F
:100DF000CDB7DEB76091720286E0689FB001112422
:100E00006C5C7D4F1A8219821C821B821E821D829D
:100E1000CE0101960E946705CE0101960E94E3056E
:100E2000CE0101960E94DB0526960FB6F894DEBF30
:100E30000FBECDBFDF91CF910895EF92FF920F9338
:100E40001F93CF93DF93CDB7DEB7A1970FB6F8947A
:100E5000DEBF0FBECDBF7C01CB01BA01F70111820D
:100E60001082138212821582148242E0420F8E0198
:100E70000F5F1F4F0E94B10D009789F0BC01C701A1
:100E80000E940D05A1960FB6F894DEBF0FBECDBF30
:100E9000DF91CF911F910F91FF90EF900895C701BF
:100EA0000E94DA04EFCFCF93DF93CDB7DEB72C9754
:100EB0000FB6F894DEBF0FBECDBFAB01BC0124E07E
:100EC000CE0107960E941D07CE0107960E942004BE
:100ED000811124C0BE01695F7F4F8DE093E00E94C5
:100EE000670560EB71E0CE0101960E947E0560EB24
:100EF00071E0CE0101960E940D05BE01695F7F4F32
:100F0000CE0101960E947904CE0101960E94170538
:100F10000E948B03CE0101960E94DB05CE0107964D
:100F20000E94DB0587E792E02C960FB6F894DEBFAF
:100F30000FBECDBFDF91CF9108958F929F92AF9258
:100F4000BF92CF92DF92EF92FF920F931F93CF93B6
:100F5000DF93CDB7DEB72C970FB6F894DEBF0FBE88
:100F6000CDBF809172028130C1F58BE880937F0202
:100F70001091E4011A8219821C821B821E821D823A
:100F800086E0189FB0011124645E7D4FCE0101966A
:100F90000E946705CE0101960E94E305CE010196ED
:100FA0000E94DB051F5F1430A9F01093E4012C961A
:100FB0000FB6F894DEBF0FBECDBFDF91CF911F916A
:100FC0000F91FF90EF90DF90CF90BF90AF909F90E8
:100FD0008F9008951092E401EACF80910001813052
:100FE00099F020F0823019F78BE801C088E88093EF
:100FF0007F02609105017091060180910701909137
:1010000008010E945307D3CF8BE880937F02409161
:10101000050150910601609107017091080121E0DE
:10102000CE0107960E941D07CE0107960E94E30598
:101030008C01FC0184899589049709F05EC00E94A7
:101040002002F801C088D188E288F3884B015C0156
:101050008C189D08AE08BF08C484D584E684F78444
:10106000C814D904EA04FB0498F4608B718B828B5A
:10107000938B24813581E090E501F090E6012E15F7
:101080003F0558F4158A148A1092E6011092E50182
:10109000CE0107960E94DB058ACFA701B801CE01D9
:1010A00001960E948F05FFEFEF1AFF0AF092E6010A
:1010B000E092E501ED80FE80F801838590E0E8167E
:1010C000F90648F460E0CE0101960E94AA04FFEF01
:1010D000EF1AFF0AF1CF2D813E818217930708F4A2
:1010E0009C0149815A81F8016085C8010E9434033E
:1010F000CE0101960E94DB05CBCF0E94200224EF97
:10110000C22EDD24D394E12CF12CF801C486D586BF
:10111000E686F786608B718B828B938B84E090E000
:10112000958B848BB5CF0F931F93CF93DF93CDB760
:10113000DEB76E970FB6F894DEBF0FBECDBF8A3014
:1011400091050CF46BC010E0843691050CF41F5F20
:101150001A8E198E1C8E1B8E1E8E1D8E4AE0BE01AD
:101160006F5F7F4F0E94730EBE016F5F7F4FCE0196
:1011700049960E940D05CE0149960E9420048111D6
:101180003EC0BE01675E7F4F8DE093E00E94670521
:1011900060EB71E0CE0143960E947E0560EB71E04A
:1011A000CE0143960E940D0500E01F5F60E0CE0176
:1011B00043960E94AA040F5F0117C0F3BE01675E49
:1011C0007F4FCE0143960E9479042091820230E045
:1011D00050E040E0BE016D5E7F4FCE0101960E945F
:1011E0008F05CE0101960E94DB05CE0143960E9439
:1011F00017050E948B03CE0143960E94DB05CE01AA
:1012000049960E94DB056E960FB6F894DEBF0FBEBE
:10121000CDBFDF91CF911F910F91089511E097CF2E
:1012200080917302823041F028F0833039F08430AD
:1012300051F008950C949D070C94F30680910901D8
:1012400090E00C94930880910A01FACF0F931F93BA
:10125000CF9380917202833059F1C0F4882309F151
:10126000823019F10E9420020091670210916802F9
:101270002091690230916A0206171707280739077B
:10128000F0F5CF911F910F910C941009843029F142
:10129000853041F780910001813021F70E94E503FC
:1012A000E1CF809100018130E9F60E94C803DACFD6
:1012B000809100018130B1F60E941B0E20E031E0E8
:1012C00040E050E00E946D11862F0E94A0030E9412
:1012D000EB0180E00E94A003C5CF80910001813026
:1012E00009F6C091E7018C2F0E94A0030E94EB0138
:1012F00080E00E94A003CF5FC093E701B3CFCF91FE
:101300001F910F910895CF92DF92EF92FF920F936A
:101310001F930E9420026093180270931902809319
:101320001A0290931B0220917202223051F158F45C
:101330002223A9F02130D9F01F910F91FF90EF9057
:10134000DF90CF900895263050F02630A9F71F91F6
:101350000F91FF90EF90DF90CF900C94E5031F91D9
:101360000F91FF90EF90DF90CF900C948F060E942A
:10137000C8031F910F91FF90EF90DF90CF900C94D6
:10138000100900911402109115022091160230915B
:101390001702011511052105310571F4609314023E
:1013A0007093150280931602909317028091130296
:1013B0008F5F809313021CC06B017C01C01AD10A9D
:1013C000E20AF30A97018601003345E71407210575
:1013D00031050CF449C06093140270931502809398
:1013E00016029093170281E080931302109212026A
:1013F00080911302883008F49FCFE2EFF1E022E100
:1014000032E060E070E0CB01C190D190E190F190CA
:101410006C0D7D1D8E1D9F1D2E173F07A9F728E01F
:1014200030E040E050E00E946D1160E87DE88BE51F
:1014300090E00E946D11C90164E670E00E941C13E7
:10144000072E000C880B990B0E94E1106093050198
:101450007093060180930701909308010E942D026A
:1014600081E08093000168CF4091120254E0459FD3
:10147000F0011124EE50FE4F008311832283338349
:1014800060931402709315028093160290931702D2
:1014900081E0840F883019F08093120287CF109278
:1014A000120284CF1F920F920FB60F9211242F9326
:1014B0003F938F939F93AF93BF9380915F029091DF
:1014C0006002A0916102B091620230915E0223E05D
:1014D000230F2D3758F50196A11DB11D20935E02F3
:1014E00080935F0290936002A0936102B0936202C6
:1014F0008091630290916402A0916502B0916602AE
:101500000196A11DB11D8093630290936402A09384
:101510006502B0936602BF91AF919F918F913F9109
:101520002F910F900FBE0F901F90189526E8230F54
:101530000296A11DB11DD2CF1F920F920FB60F922E
:1015400011242F933F934F935F936F937F938F93C8
:101550009F93AF93BF93EF93FF93E0910301F091BB
:1015600004010995FF91EF91BF91AF919F918F91E8
:101570007F916F915F914F913F912F910F900FBE8F
:101580000F901F9018951F920F920FB60F92112473
:101590002F933F934F935F936F937F938F939F937B
:1015A000AF93BF93EF93FF93E0910101F09102019C
:1015B0000995FF91EF91BF91AF919F918F917F918D
:1015C0006F915F914F913F912F910F900FBE0F90B0
:1015D0001F9018951F920F920FB60F9211242F9300
:1015E0003F934F935F936F937F938F939F93AF93AB
:1015F000BF93EF93FF93E0916B02F0916C0209951A
:10160000FF91EF91BF91AF919F918F917F916F91DA
:101610005F914F913F912F910F900FBE0F901F90B0
:101620001895789484B5826084BD84B5816084BD4A
:1016300085B5826085BD85B5816085BD80916E0070
:10164000816080936E0010928100809181008260A1
:1016500080938100809181008160809381008091DE
:1016600080008160809380008091B10084608093CD
:10167000B1008091B00081608093B00080917A00C9
:10168000846080937A0080917A00826080937A00EF
:1016900080917A00816080937A0080917A008068DE
:1016A00080937A001092C10080E1809381001092B3
:1016B0008000109287001092860081E18093810063
:1016C00020910501309106014091070150910801D8
:1016D00060EC71EE84E69CE40E9474126B017C0164
:1016E0006091090170E090E080E00E94E1109B01B0
:1016F000AC01C701B6010E9474120E94E612AB0150
:10170000BC01DC01CA01E3E0880F991FAA1FBB1FBF
:10171000EA95D1F7009721E0A207B10540F421E056
:1017200020936F0290936E0280936D020EC000971B
:1017300028E0A207B10508F0D5C082E080936F02CF
:101740007F7150936E0240936D0280916D02909173
:101750006E02909387008093860080916F02806173
:101760008093810086E299E090936C0280936B02F3
:1017700081E080936F0088EC96E090930201809363
:101780000101809169008C7F826080936900E89AF2
:1017900083E899E0909304018093030180916900AC
:1017A000837F886080936900E99A61E085E00E9408
:1017B0008A0161E084E00E948A0161E086E00E9483
:1017C0008A0162E089E00E948A0162E088E00E946A
:1017D0008A0160E087E00E948A0189E00E9433016B
:1017E0008093740287E00E943301809370020E940C
:1017F000200260936702709368028093690290935D
:101800006A0261E080917D020E948A0161E080911C
:101810007E020E948A018DE792E00E941F0364E429
:101820008DE792E00E94BA028DE792E00E940603E3
:101830008DE792E00E941F0366EC8DE792E00E9424
:10184000BA028DE792E00E9406038DE792E00E94C3
:101850001F0360E88DE792E00E94BA028DE792E0F4
:101860000E94060388E880937F020E949D07C0E0E3
:10187000D0E087E00E943301809371029091700262
:10188000891759F0811109C080917302843009F0E1
:101890005CC0109273020E941009809171028093C3
:1018A000700289E00E943301809375029091740266
:1018B000891779F081110DC080917302823009F48B
:1018C00098C008F046C0882309F45CC0813009F450
:1018D00080C08091750280937402209751F20E941B
:1018E0000000C7CF009720E4A207B10558F423E019
:1018F00020936F0246E0B695A795979587954A95F0
:10190000D1F710CF0097A10521E0B20740F424E001
:1019100020936F02892F9A2FAB2FBB2703CF0097FD
:10192000A10524E0B20758F425E020936F022AE0D5
:10193000B695A795979587952A95D1F7F3CE85E02B
:1019400080936F028FEF9FEFEDCE8F5F80937302D6
:10195000A2CF833009F460C0843009F0BACF88E0A8
:101960000E94330120910A01892B09F46BC02F3F9B
:1019700019F02F5F20930A0180910A0190E00E94E4
:101980009308A7CF88E00E943301C0900501D09052
:101990000601E0900701F090080120E030E040E807
:1019A0005FE3892B29F0C701B6010E94081204C029
:1019B000C701B6010E9407126093050170930601EA
:1019C00080930701909308010E949D070E942D02B9
:1019D00080CF88E00E943301C0900501D0900601BD
:1019E000E0900701F09008012DEC3CEC4CEC5DE33D
:1019F000D8CF88E00E94330120917202892B41F0F8
:101A0000263019F02F5F209372020E94F30661CFF7
:101A10002223D9F32150F7CF88E00E94330120918F
:101A20000901892B59F0203319F02F5F2093090108
:101A30008091090190E00E949308C8CF2130C1F342
:101A40002150F4CF213009F497CF215093CF6CEA85
:101A500071E084E392E00E947E0561EB71E08AE32D
:101A600092E00E947E0566EB71E080E492E00E94C5
:101A70007E056BEB71E086E492E00E947E0560ECEF
:101A800071E08CE492E00E947E0565EC71E082E5F5
:101A900092E00E947E056AEC71E088E592E00E9487
:101AA0007E056FEC71E08CE192E00E947E0564EDB2
:101AB00071E082E292E00E947E0569ED71E088E2C9
:101AC00092E00E947E056EED71E08EE292E00E944F
:101AD0007E0560EB71E087E792E00E947E05E7E714
:101AE000F2E08AE086838BE0878388E8808784E061
:101AF0008387158A148A80E8E5E1F1E0ADE8B2E079
:101B000001900D928A95E1F760EB71E08DE093E032
:101B10000C947E05CF93DF938DE093E00E94DB056C
:101B200087E792E00E94DB058EE292E00E94DB05EF
:101B300088E292E00E94DB0582E292E00E94DB05EF
:101B40008CE192E00E94DB05CEE5D2E02697CE0143
:101B50000E94DB0582E0C433D807C1F7DF91CF9143
:101B60000895EF920F931F93CF93DF93E80134E032
:101B700047FD34E1042E000C550B57FF03C051956F
:101B800041955109E32E022F242FAE010E94980E99
:101B9000CE01DF91CF911F910F91EF9008958F9219
:101BA0009F92AF92BF92CF92DF92EF92FF92CF932C
:101BB000DF93EC01688179818A819B8161157105D0
:101BC0008105910521F464E279ED8BE597E02DE143
:101BD00033EF41E050E00E946D1149015A019B0131
:101BE000AC01A7EAB1E40E948C116B017C01ACEE60
:101BF000B4EFA50194010E949A11C60ED71EE81EEB
:101C0000F91EF7FE06C081E0C81AD108E10880E895
:101C1000F80AC882D982EA82FB82C701B6019F779F
:101C2000DF91CF91FF90EF90DF90CF90BF90AF907A
:101C30009F908F9008958F929F92AF92BF92CF9274
:101C4000DF92EF92FF9260910B0170910C018091F5
:101C50000D0190910E01611571058105910521F429
:101C600064E279ED8BE597E02DE133EF41E050E060
:101C70000E946D1149015A019B01AC01A7EAB1E430
:101C80000E948C116B017C01ACEEB4EFA5019401B4
:101C90000E949A11C60ED71EE81EF91EF7FE06C056
:101CA00081E0C81AD108E10880E8F80AC0920B0167
:101CB000D0920C01E0920D01F0920E01C701B60125
:101CC0009F77FF90EF90DF90CF90BF90AF909F9065
:101CD0008F90089560930B0170930C0180930D0118
:101CE00090930E010895BB274A3031F4992322F4D2
:101CF000BDE2909581959F4F0C947F0EBB27FB0111
:101D00005527AA27880F991FAA1FA41710F0A41BF4
:101D100083955051B9F7A05DAA3308F0A95DA1934E
:101D2000009779F7B111B1931192CB010C94CF10B8
:101D3000A9E0B0E0EEE9FEE00C94A5116A01F22EF4
:101D4000B02E102FFBE3AF2EA01608F41BE31F5F8D
:101D5000012F27E0AE014F5F5F4F0E94F70FBC01DC
:101D60008981982F9970913009F43FC09BE2E1FC82
:101D700004C09E2D9170E0FC3AC05E2D5071E82F9A
:101D8000E87083FF46C084E0911101C083E0EF2D2D
:101D9000E81B8F1508F0E0E0D6018E2F20E25523D6
:101DA00051F1992329F0D6019C93C60101966C014B
:101DB00096012D5F3F4FE2FE24C08EE4D6018C9346
:101DC00091E411969C93119712968C93D9018E2FC2
:101DD00090E281111BC0E20FF32FF11D10828EEFF4
:101DE0009FEF2996ECE00C94C1119DE2C6CF90E2E2
:101DF000C4CF2D9381508111FCCFCE0ED11CE0E0D9
:101E0000D0CF8EE6D6018C9391E6DBCF9D938150A7
:101E1000E0CF482F447082FF3DC084E0911101C0A3
:101E200083E08F1510F4EF2DE81BD6018E2F20E2F2
:101E3000552309F1992329F0D6019C93C6010196F7
:101E40006C0196012D5F3F4FE2FE1BC089E4D60175
:101E50008C938EE411968C93119786E412968C9352
:101E6000D9018E2F90E2882309F4B5CF9D9381503C
:101E7000FACF2D9381508111FCCFCE0ED11CE0E022
:101E8000D9CF89E6D6018C938EE611968C93119763
:101E900086E6E4CF9B0177FF02C030E020E0A1E0BE
:101EA000B0E0911102C0B0E0A0E0F9013196AE0FB0
:101EB000BF1F8B2C912CBB2009F461C05401EFEFA4
:101EC000AE1ABE0AAA0DBB1DFA161B0619F014F0B5
:101ED0004F2D4A1B511188C0E3FC59C07601A42F35
:101EE000B0E2A1114FC0C40ED11C992309F45BC00C
:101EF00040E0D6011196F60190836D01552309F457
:101F000048C0012F060F9A81582F507184FF03C0DB
:101F1000913309F4015010160CF047C0093008F055
:101F200008E0EEE2FE2E5B01A01AB1088501919453
:101F3000819491082F3F320729F4D601FC92F601D3
:101F400031966F016217730794F1021713077CF53E
:101F5000DB01A21BB30BAA24A394B12CAC0EBD1EB3
:101F6000AA0DBB1D11968C9121503109D6011196F5
:101F700028153905F4F0F60180836D01DBCFB12C13
:101F8000A12CA0CFF701B1937F01A150AACF91114D
:101F9000B0CFD601942F50E302C05D9391509111C0
:101FA000FCCFC40ED11C40E0ACCF01E0BACF80E33F
:101FB000DBCF6217730731F4963388F4953311F44D
:101FC000552369F0F6018083FD01842F90E2811191
:101FD00008C0A40FB11D1C9290E080E002CF81E305
:101FE000F1CF91938150F3CF911183CF8ACF2830D5
:101FF00008F027E03327DA01990F311D87FD916042
:1020000000966105710539F432602E5F3D9330E32F
:102010002A95E1F708959F3F30F0803871056105FA
:1020200009F03C5F3C5F3D93913008F08068911D62
:10203000DF93CF931F930F93FF92EF92192F987F07
:102040009695E92F96959695E90FFF27EE53FF4F4A
:1020500099273327EE24FF24A701E7010590089470
:10206000079428F4360FE71EF81E491F511D660F0E
:10207000771F881F991F0694A1F70590079428F4ED
:10208000E70EF81E491F561FC11D770F881F991FA5
:10209000661F0694A1F70590079428F4F80E491FCF
:1020A000561FC71FD11D880F991F661F771F0694E3
:1020B000A1F70590079420F4490F561FC71FD81F9A
:1020C000990F661F771F881F0694A9F784911095B2
:1020D000177041F0D695C79557954795F794E794B3
:1020E0001A95C1F7E8E6F0E06894159015913591DE
:1020F0006591959105907FE27395E118F10A430B84
:10210000560BC90BD009C0F7E10CF11E431F561F37
:10211000C91FD01D7EF4703311F48A95E6CFE89480
:10212000015030F0080F0AF40027021708F4202F9E
:102130002395022F7A3328F079E37D932A95E9F7E6
:1021400010C07D932A9589F60694979567953795E3
:1021500017951794E118F10A430B560BC90BD009D8
:1021600098F023957E9173957A3308F070E37C9311
:102170002013B8F77E9170617D9330F0839571E301
:102180007D9370E32A95E1F71124EF90FF900F9172
:102190001F91CF91DF91992787FD90950895DC01DC
:1021A000FC01672F71917723E1F7329704C07C918E
:1021B0006D9370836291AE17BF07C8F30895E894DA
:1021C00009C097FB3EF490958095709561957F4F7F
:1021D0008F4F9F4F9923A9F0F92F96E9BB2793952D
:1021E000F695879577956795B795F111F8CFFAF43D
:1021F000BB0F11F460FF1BC06F5F7F4F8F4F9F4F6E
:1022000016C0882311F096E911C0772321F09EE8CB
:10221000872F762F05C0662371F096E8862F70E031
:1022200060E02AF09A95660F771F881FDAF7880F0B
:102230009695879597F9089597F99F6780E870E0DC
:1022400060E008959FEF80EC089500240A9416162C
:10225000170618060906089500240A941216130694
:10226000140605060895092E0394000C11F4882322
:1022700052F0BB0F40F4BF2B11F460FF04C06F5F3E
:102280007F4F8F4F9F4F089557FD9058440F551F14
:1022900059F05F3F71F04795880F97FB991F61F0E8
:1022A0009F3F79F087950895121613061406551F5F
:1022B000F2CF4695F1DF08C0161617061806991FCB
:1022C000F1CF86957105610508940895E894BB27C0
:1022D00066277727CB0197F90895052E97FB1EF403
:1022E00000940E94841157FD07D00E94D61107FC6C
:1022F00003D04EF40C94841150954095309521955F
:102300003F4F4F4F5F4F0895909580957095619521
:102310007F4F8F4F9F4F08950E94F811A59F900DFA
:10232000B49F900DA49F800D911D11240895B7FFB7
:102330000C948C110E948C11821B930B08952F9288
:102340003F924F925F926F927F928F929F92AF9245
:10235000BF92CF92DF92EF92FF920F931F93CF9392
:10236000DF93CDB7DEB7CA1BDB0B0FB6F894DEBF29
:102370000FBECDBF09942A88398848885F846E844F
:102380007D848C849B84AA84B984C884DF80EE8099
:10239000FD800C811B81AA81B981CE0FD11D0FB6A2
:1023A000F894DEBF0FBECDBFED010895A1E21A2E55
:1023B000AA1BBB1BFD010DC0AA1FBB1FEE1FFF1FE9
:1023C000A217B307E407F50720F0A21BB30BE40B39
:1023D000F50B661F771F881F991F1A9469F7609580
:1023E0007095809590959B01AC01BD01CF0108953A
:1023F000A29FB001B39FC001A39F700D811D112446
:10240000911DB29F700D811D1124911D089550588A
:10241000BB27AA270E941F120C9433110E9425117A
:1024200038F00E942C1120F039F49F3F19F426F463
:102430000C9422110EF4E095E7FB0C941C11E92F8B
:102440000E94441158F3BA1762077307840795076F
:1024500020F079F4A6F50C9466110EF4E0950B2E9D
:10246000BA2FA02D0B01B90190010C01CA01A001E6
:102470001124FF27591B99F0593F50F4503E68F141
:102480001A16F040A22F232F342F4427585FF3CF82
:10249000469537952795A795F0405395C9F77EF453
:1024A0001F16BA0B620B730B840BBAF09150A1F09C
:1024B000FF0FBB1F661F771F881FC2F70EC0BA0F22
:1024C000621F731F841F48F4879577956795B795AA
:1024D000F7959E3F08F0B0CF9395880F08F09927A5
:1024E000EE0F9795879508950E9488120C943311EA
:1024F0000E942C1158F00E94251140F029F45F3FF2
:1025000029F00C941C1151110C9467110C94221198
:102510000E94441168F39923B1F3552391F3951B5D
:10252000550BBB27AA2762177307840738F09F5FF4
:102530005F4F220F331F441FAA1FA9F335D00E2E61
:102540003AF0E0E832D091505040E695001CCAF7CE
:102550002BD0FE2F29D0660F771F881FBB1F261791
:1025600037074807AB07B0E809F0BB0B802DBF0168
:10257000FF2793585F4F3AF09E3F510578F00C9437
:102580001C110C9467115F3FE4F3983ED4F38695D9
:1025900077956795B795F7959F5FC9F7880F911D58
:1025A0009695879597F90895E1E0660F771F881F44
:1025B000BB1F621773078407BA0720F0621B730BF7
:1025C000840BBA0BEE1F88F7E09508950E94ED1278
:1025D0006894B1110C94671108950E944C1188F011
:1025E0009F5798F0B92F9927B751B0F0E1F0660FD7
:1025F000771F881F991F1AF0BA95C9F714C0B13018
:1026000091F00E946611B1E008950C946611672F55
:10261000782F8827B85F39F0B93FCCF38695779546
:102620006795B395D9F73EF490958095709561952F
:102630007F4F8F4F9F4F089597FB072E16F40094FE
:1026400007D077FD09D00E94301307FC05D03EF477
:10265000909581959F4F0895709561957F4F08954E
:10266000AA1BBB1B51E107C0AA1FBB1FA617B707B8
:1026700010F0A61BB70B881F991F5A95A9F78095D4
:102680009095BC01CD010895EE0FFF1F0590F491C8
:10269000E02D09940F931F93CF93DF938230910520
:1026A00010F482E090E0E0911503F091160330E021
:1026B00020E0B0E0A0E0309799F42115310509F44D
:1026C0004AC0281B390B24303105D8F58A819B81FB
:1026D0006115710589F1FB0193838283FE0111C0AD
:1026E000408151810281138148175907E0F0481752
:1026F000590799F4109761F012960C93129713965C
:102700001C933296CF01DF91CF911F910F910895C5
:102710000093150310931603F4CF2115310551F0E2
:102720004217530738F0A901DB019A01BD01DF010F
:10273000F801C1CFEF01F9CF9093160380931503F1
:10274000CDCFFE01E20FF31F819391932250310907
:1027500039832883D7CF2091130330911403232B7F
:1027600041F4209111013091120130931403209310
:10277000130320910F01309110012115310541F40F
:102780002DB73EB74091130150911401241B350B16
:10279000E0911303F0911403E217F307A0F42E1B4A
:1027A0003F0B2817390778F0AC014E5F5F4F2417B5
:1027B000350748F04E0F5F1F5093140340931303E7
:1027C000819391939FCFF0E0E0E09CCFCF93DF9394
:1027D0000097E9F0FC01329713821282A091150351
:1027E000B0911603ED0130E020E01097A1F42081B4
:1027F0003181820F931F2091130330911403281706
:10280000390709F061C0F0931403E0931303DF91DB
:10281000CF910895EA01CE17DF07E8F54A815B8181
:102820009E0141155105B1F7E901FB83EA83499106
:102830005991C40FD51FEC17FD0761F48081918178
:102840000296840F951FE901998388838281938181
:102850009B838A83F0E0E0E012968D919C91139720
:102860000097B9F52D913C911197CD010296820FF9
:10287000931F20911303309114032817390739F659
:10288000309751F51092160310921503B09314036C
:10289000A0931303BCCFD383C28340815181840FA3
:1028A000951FC817D90761F44E5F5F4F88819981E2
:1028B000480F591F518340838A819B819383828370
:1028C0002115310509F0B0CFF0931603E0931503FD
:1028D0009ECFFD01DC01C0CF13821282D7CFB0E0C2
:1028E000A0E0E5E7F4E10C94A1118C01009751F40C
:1028F000CB010E944A138C01C801CDB7DEB7E0E1DD
:102900000C94BD11FC01E60FF71F9C012250310908
:10291000E217F30708F49DC0D901CD91DC9111971E
:10292000C617D70798F0C530D10530F3CE0104970C
:102930008617970708F3C61BD70B2297C193D1932D
:102940006D937C93CF010E94E613D6CF5B01AC1A46
:10295000BD0A4C018C0E9D1EA0911503B09116036B
:10296000512C412CF12CE12C109731F5809113035F
:10297000909114038815990509F05CC04616570616
:1029800008F058C080910F0190911001009741F418
:102990008DB79EB74091130150911401841B950B84
:1029A000E817F90708F055C0F0931403E0931303F8
:1029B000F90171836083A0CF8D919C91119712963C
:1029C0006C90129713967C901397A815B90559F53A
:1029D0006C0142E0C40ED11CCA14DB0420F1AC012E
:1029E0004A195B09DA011296159780F062827382A8
:1029F00051834083D9016D937C93E114F10471F00C
:102A0000D7011396FC93EE93129776CF22968C0FF4
:102A10009D1FF90191838083F301EFCFF09316039B
:102A2000E093150369CF4816590608F42C017D017F
:102A3000D3019ACFCB010E944A137C01009749F041
:102A4000AE01B8010E942C15C8010E94E61387014F
:102A500053CF10E000E050CFFB01DC0102C0019039
:102A60000D9241505040D8F70895FB01DC018D9143
:102A7000019080190110D9F3990B0895FB01DC0135
:102A800001900D920020E1F7089510E0CFEDD0E025
:102A900004C0FE010E9444132196C03ED107C9F72D
:042AA000F894FFCFD8
:102AA400012C022C020000FC420110010000000075
:102AB4000017038000000000000000000000000078
:102AC4000000000000000000000000000000000002
:102AD4000000000000000022006D000020390F00FB
:102AE40000104080523F065B4F666D7D077F6F008C
:102AF400000048005300777C395E79713D76301EC2
:102B0400003800543F7367506D783E0000006E5BE0
:102B14003964000F0820777C585E79713D74041E77
:102B2400003800545C7367506D783E0000006E5BA3
:102B340039300F400002060301100C0402504155C5
:102B44005300504C41590053544F5000494E5420A7
:102B5400004F5554200043414C430052414E440021
:102B6400434F554E00434C494E00434C4F55005F74
:102B74005F5F5F002D2D2D2D007C7C7C7C002B2B3A
:042B84002B2B0000F7
:00000001FF
