:100000000C94E0000C944D060C9426060C94080108
:100010000C9408010C9408010C9408010C9408013C
:100020000C9408010C9408010C9408010C9408012C
:100030000C9408010C9474060C9408010C940801AB
:100040000C94DC050C9408010C9408010C94080134
:100050000C9408010C9408010C9408010C940801FC
:100060000C9408010C94080100407A10F35A00A087
:10007000724E18090010A5D4E80000E87648170071
:1000800000E40B54020000CA9A3B000000E1F505B1
:10009000000080969800000040420F000000A086FB
:1000A00001000000102700000000E803000000002D
:1000B0006400000000000A000000000001000000D1
:1000C00000002C76D888DC674F0823DFC1DFAE59EB
:1000D000E1B1B796E5E3E453C63AE651997696E87E
:1000E000E6C28426EB898C9B62ED407C6FFCEFBC02
:1000F0009C9F40F2BAA56FA5F490055A2AF75C932D
:100100006B6CF9676DC11BFCE0E40D47FEF520E662
:10011000B500D0ED902E0300943577050080841E45
:10012000080000204E0A000000C80C333333330FA0
:10013000986E12831141EF8D2114893BE65516CF3D
:10014000FEE6DB18D1844B381BF77C1D901DA4BB49
:10015000E424203284725E228100C9F124ECA1E5FE
:100160003D2700000000240027002A0000000000B6
:10017000250028002B000000000023002600290095
:10018000040404040404040402020202020203033D
:100190000303030301020408102040800102040845
:1001A00010200102040810200000000800020100D5
:1001B000000304070000000000000000EF09100A1F
:1001C00011241FBECFEFD8E0DEBFCDBF22E0A0EAF2
:1001D000B1E001C01D92AF35B207E1F711E0A0E038
:1001E000B1E0E8E3F0E202C005900D92A03AB10759
:1001F000D9F710E0CFEDD0E004C02197FE010E94B6
:100200000E0ECE3DD107C9F70E949B060C940F102D
:100210000C940000833081F028F4813099F0823012
:10022000A9F008958730A9F08830C9F08430B1F47E
:10023000809180008F7D03C0809180008F778093B4
:100240008000089584B58F7784BD089584B58F7D2F
:10025000FBCF8091B0008F778093B000089580919C
:10026000B0008F7DF9CFCF93DF93282F30E0F901D5
:10027000E855FE4F8491F901EC56FE4FD491F901F7
:10028000E058FE4FC491CC23A1F081110E940A01D5
:10029000EC2FF0E0EE0FFF1FEA58FE4FA591B4914E
:1002A000EC91ED2381E090E009F480E0DF91CF91C3
:1002B000089580E090E0FACF1F93CF93DF93282F2B
:1002C00030E0F901E855FE4F8491F901EC56FE4FFC
:1002D000D491F901E058FE4FC491CC23A9F0162F18
:1002E00081110E940A01EC2FF0E0EE0FFF1FE4598C
:1002F000FE4FA591B4918FB7F894EC91111108C0FD
:10030000D095DE23DC938FBFDF91CF911F910895AD
:10031000DE2BF8CFCF93DF93CFEBD1E061E08E817E
:100320000E945C0161E08F810E945C0183E090E0AB
:100330000197F1F760E08F81DF91CF910C945C0120
:10034000CF93DF93CFEBD1E060E08E810E945C0120
:1003500060E08F810E945C0161E08E810E945C01FF
:1003600083E090E00197F1F761E08F81DF91CF9119
:100370000C945C01CF93DF9390E0FC01EC56FE4FB0
:10038000249180589E4FFC0184918823C9F090E00D
:10039000880F991FFC01EE59FE4FA591B491FC0105
:1003A000E459FE4FC591D49161110DC09FB7F894E7
:1003B0008C91209582238C938881282328839FBF4A
:1003C000DF91CF910895623051F49FB7F8943C913A
:1003D000822F809583238C93E8812E2BEFCF8FB7CC
:1003E000F894EC912E2B2C938FBFEACF0F931F9391
:1003F000CF93DF93D82FC8E003E010E060E0809156
:10040000C5010E945C016D2F61708091C6010E9440
:100410005C01C8010197F1F761E08091C5010E947C
:100420005C01C8010197F1F7D695C15039F760E03A
:100430008091C5010E945C0161E08091C6010E942B
:100440005C0161E08091C5010E945C0160E08091E7
:10045000C6010E94BA018091C6010E943301C82FD3
:1004600081110AC060E08091C6010E94BA0160E07B
:100470008091C6010E945C0161E08091C6010E94EA
:10048000BA018C2FDF91CF911F910F910895DF92C8
:10049000EF92FF920F931F93CF93DF93C091CA0106
:1004A0008091C3019091C401D0E08C179D0708F49E
:1004B000EC010091BF011091C001D090C7010E94D2
:1004C0008A0180E40E94F6010E94A0010E948A0134
:1004D00080EC0E94F601780110E000E00C171D0787
:1004E000B9F0F70181917F019091C90191110AC082
:1004F0002091C80130E0002E02C0369527950A945D
:10050000E2F720FD80680E94F6010F5F1F4FE6CFE3
:100510000E94A0010E948A018D2D0E94F601DF91A8
:10052000CF911F910F91FF90EF90DF900C94A0015D
:100530003FB7F8948091A1019091A201A091A301ED
:10054000B091A40126B5A89B05C02F3F19F00196D4
:10055000A11DB11D3FBFBA2FA92F982F8827BC011D
:10056000CD01620F711D811D911D42E0660F771F45
:10057000881F991F4A95D1F708958F929F92AF9245
:10058000BF92CF92DF92EF92FF920E9498024B01AE
:100590005C0184E0C82ED12CE12CF12C0E94980241
:1005A000681979098A099B09683E7340810591059C
:1005B000A8F321E0C21AD108E108F10888EE880EFC
:1005C00083E0981EA11CB11CC114D104E104F10404
:1005D00029F7FF90EF90DF90CF90BF90AF909F9062
:1005E0008F9008950F931F930E9498020091B0017D
:1005F0001091B1012091B2013091B301601B710BD8
:10060000820B930B603F7944824091051CF081E09E
:100610008093AF011F910F9108950F931F930E9434
:1006200098020091B0011091B1012091B201309176
:10063000B301601B710B820B930B603F79448240C6
:1006400091051CF081E08093B5011F910F910895F1
:100650000895CF93DF93D82F60E085E00E945C017E
:10066000C8E06D2F617084E00E945C01D69561E066
:1006700086E00E945C0160E086E00E945C01C1505F
:1006800081F761E085E0DF91CF910C945C01CF931D
:100690008091B401813011F5C091AE01CF5FC0935C
:1006A000AE018FE00E9429030E94BD0280E00E94FB
:1006B00029038091040190910501899FC0011124B3
:1006C000C81719065CF01092AE0180EF0E94290352
:1006D0000E94BD0280E0CF910C942903CF91089530
:1006E000FC01248135814091590250915A0224170E
:1006F0003507E1F480819181609155027091560235
:100700000097D1F061157105A1F4232BC1F0FC0114
:10071000808190E008C0232B91F0FB01808190E064
:1007200091958195910921E0892B09F020E0822F94
:1007300008950E94FF0FF7CF6115710561F721E061
:10074000F6CF0F931F93CF93DF93EC0188819981AC
:10075000009759F02A813B812617370730F081E056
:10076000DF91CF911F910F9108958B016F5F7F4FA4
:100770000E94390F009759F0998388831B830A835D
:100780002C813D81232B59F7FC011082E8CF80E0BA
:10079000E7CFEF92FF920F931F93CF93DF936115F3
:1007A000710541F480E0DF91CF911F910F91FF908F
:1007B000EF90089541155105B1F07B01EC010C81DA
:1007C0001D81040F151FB8010E94A103882351F356
:1007D000288139818C819D81B701820F931F0E94EE
:1007E00008101D830C8381E0DECFEF92FF920F9300
:1007F0001F93CF93DF9300D0CDB7DEB78C01698311
:100800001A82FC01E480F580FFEFEF1AFF0AB701BE
:100810000E94A103882381F0F80120813181848125
:100820009581BE016F5F7F4F820F931F0E9408105A
:10083000F801F582E48281E00F900F90DF91CF9173
:100840001F910F91FF90EF900895CF93DF93EC01EC
:1008500088819981009711F00E94B00E1982188248
:100860001D821C821B821A82DF91CF910895EF9224
:10087000FF920F931F93CF93DF93EC017B018A01CB
:10088000BA010E94A10381110BC0CE010E94250470
:10089000CE01DF91CF911F910F91FF90EF900895BE
:1008A0001D830C83B701888199810E940810F0CFC5
:1008B00022E08535920761F0FC016081718161154C
:1008C000710549F04481558185E592E00E94370425
:1008D00085E592E0089585E592E00E942504F8CF31
:1008E000FB0101900020E9F73197AF01461B570B40
:1008F0000C9437040F931F93CF93DF938C016EE911
:1009000071E08FEB91E00E947004D0E0C0E0D8016C
:1009100014968D919C911597C817D90790F58D91D4
:100920009C91009769F08C0F9D1FDC01EC91E7FF13
:1009300008C060E08FEB91E00E94F5032196E7CFBD
:10094000E0E00E2E000CFF0BE154FE4F668960388C
:1009500089F78091C3019091C401009759F3E09108
:10096000BF01F091C001309741F41092BE01EEEB4F
:10097000F1E0808180688083E1CF0197E80FF91F63
:10098000F8CF1092D4011092D301DF91CF911F9133
:100990000F910895FC011182108213821282158238
:1009A0001482FB0101900020E9F73197AF01461B4B
:1009B000570B0C943704FC0180819181009711F052
:1009C0000C94B00E0895CF93DF93CDB7DEB72C977C
:1009D0000FB6F894DEBF0FBECDBFBC01CE010796A7
:1009E0000E94CA04CE0107960E947003811122C0A2
:1009F000CE0107960E9458046EE971E0CE0101967F
:100A00000E94CA046EE971E0CE0101960E94700452
:100A10004B855C856F817885CE0101960E94C90364
:100A2000CE0101960E947A040E944702CE010196EF
:100A30000E94DB04CE0107960E94DB048FEB91E05D
:100A40002C960FB6F894DEBF0FBECDBFDF91CF91CD
:100A50000895FF920F931F93CF93DF93CDB7DEB727
:100A60006E970FB6F894DEBF0FBECDBF062FF42EE3
:100A70001A8E198E1C8E1B8E1E8E1D8E4AE0BE0194
:100A80006F5F7F4F0E94360ABE016F5F7F4FCE01BE
:100A900049960E947004CE0149960E94700381110C
:100AA00058C0CE0149960E9458046EE971E0CE010B
:100AB00043960E94CA046EE971E0CE0143960E94FB
:100AC000700410E01F1539F060E0CE0143960E94DB
:100AD000F5031F5FF7CF4D8D5E8D698D7A8DCE0149
:100AE00043960E94C90301112AC00091CA016EE910
:100AF00071E0CE0101960E94CA048F89988D0097FB
:100B0000D1F010E08017910708F48C01EB89FC8983
:100B1000E00FF11FF08010826B897C89CE01019675
:100B20006115710541F10E9470048B899C89080F41
:100B3000191FF801F082CE0101960E94DB04CE015C
:100B400043960E947A040E944702CE0143960E9477
:100B5000DB04CE0149960E94DB048FEB91E06E9698
:100B60000FB6F894DEBF0FBECDBFDF91CF911F91BE
:100B70000F91FF9008950E942504D7CFCF93DF9364
:100B8000EC018A3091053CF040E0843691052CF46C
:100B90004F5F4F5F06C041E0FBCFC83E83E0D80700
:100BA000C4F360E0CE010E94290540E061E0CE017F
:100BB000DF91CF910C9429051F920F920FB60F92DF
:100BC00011242F933F938F939F93AF93BF93809163
:100BD000AA019091AB01A091AC01B091AD0130910F
:100BE000A00123E0230F2D3758F50196A11DB11D5B
:100BF0002093A0018093AA019093AB01A093AC0134
:100C0000B093AD018091A1019091A201A091A301A7
:100C1000B091A4010196A11DB11D8093A1019093F3
:100C2000A201A093A301B093A401BF91AF919F91A2
:100C30008F913F912F910F900FBE0F901F9018959D
:100C400026E8230F0296A11DB11DD2CF1F920F924D
:100C50000FB60F9211242F933F934F935F936F938F
:100C60007F938F939F93AF93BF93EF93FF93E09105
:100C70000201F09103010995FF91EF91BF91AF91AE
:100C80009F918F917F916F915F914F913F912F91A4
:100C90000F900FBE0F901F9018951F920F920FB6D6
:100CA0000F9211242F933F934F935F936F937F93F2
:100CB0008F939F93AF93BF93EF93FF93E0910001C6
:100CC000F09101010995FF91EF91BF91AF919F9133
:100CD0008F917F916F915F914F913F912F910F90E5
:100CE0000FBE0F901F9018951F920F920FB60F9284
:100CF00011242F933F934F935F936F937F938F9321
:100D00009F93AF93BF93EF93FF93E091A501F09171
:100D1000A6010995FF91EF91BF91AF919F918F919E
:100D20007F916F915F914F913F912F910F900FBEE7
:100D30000F901F901895CF93DF93CDB7DEB7A7978D
:100D40000FB6F894DEBF0FBECDBF789484B5826035
:100D500084BD84B5816084BD85B5826085BD85B55F
:100D6000816085BD80916E00816080936E001092DD
:100D70008100809181008260809381008091810058
:100D800081608093810080918000816080938000E9
:100D90008091B10084608093B1008091B000816047
:100DA0008093B00080917A00846080937A00809173
:100DB0007A00826080937A0080917A0081608093CB
:100DC0007A0080917A00806880937A001092C10046
:100DD00080E1809381001092800010928700109231
:100DE000860081E180938100609106017091070186
:100DF00080910801909109010E94970D9B01770F46
:100E0000440B550B60E077E883E993E00E94CD0D39
:100E1000CA01B90100910501202F30E050E040E007
:100E20000E94CD0DDA01C90163E0880F991FAA1F46
:100E3000BB1F6A95D1F7009761E0A607B10540F4A2
:100E400021E02093A9019093A8018093A7010EC0EF
:100E5000009768E0A607B10508F08AC182E0809398
:100E6000A9015F713093A8012093A7018091A70188
:100E70009091A80190938700809386008091A901AA
:100E800080618093810087E493E09093A601809332
:100E9000A50181E080936F0082EF92E090930101C1
:100EA00080930001809169008C7F8260809369004B
:100EB000E89A8DE093E09093030180930201809182
:100EC0006900837F886080936900E99A61E080917E
:100ED000C5010E94BA0161E08091C6010E94BA0179
:100EE0000E948A0184E40E94F6010E94A0010E94EF
:100EF0008A0186EC0E94F6010E94A0010E948A01EC
:100F000080E80E94F6010E94A0018FE88093C7014B
:100F1000609106017091070180910801909109018B
:100F20000E94970DCB010E94BE0562E089E00E94FD
:100F3000BA0162E088E00E94BA0160E087E00E94A6
:100F4000BA0161E085E00E94BA0161E084E00E949C
:100F5000BA0161E086E00E94BA0189E00E94330193
:100F60008093B60187E00E9433018093BD01412C3C
:100F7000E7E85E2EE3E96E2EE3E07E2EF0E0AF2E92
:100F8000F0E0BF2EA5E0DA2E88248A94982C13E096
:100F9000C12E72E0372E2224239487E00E94330171
:100FA0009091BD01891749F0811107C09091BC0152
:100FB000933008F410C11092BC018093BD012FB78B
:100FC000F8948091AA019091AB01A091AC01B091ED
:100FD000AD012FBF4091B8015091B9016091BA01A4
:100FE0007091BB01481759076A077B0708F060C07A
:100FF0008091BC01823008F049C060910601709177
:10100000070180910801909109011BA21AA21DA25B
:101010001CA21FA21EA28E010F5F1F4F24E046E0FC
:101020000E94180A009709F4DAC0BC01CE0182962A
:101030000E947004CE0182960E947003811122C02A
:10104000CE0182960E9458046EE971E0CE010196AD
:101050000E94CA046EE971E0CE0101960E947004FC
:101060004EA15FA16AA17BA1CE0101960E94C90396
:10107000CE0101960E947A040E944702CE01019699
:101080000E94DB04CE0182960E94DB048091BC01A9
:10109000823029F48091050190E00E94BE05809184
:1010A000BC01833029F48091040190E00E94BE05C8
:1010B00089E00E9433018093B7019091B6018917AE
:1010C00009F4D5C08111D3C08091BC0181118CC0BD
:1010D00088E00E943301E0900601F0900701009142
:1010E00008011091090120E030E040E85FE3892B1E
:1010F00009F48CC0C801B7010E942B0D6093060152
:101100007093070180930801909309016091060193
:101110007091070180910801909109010E94970D3B
:101120009B01770F440B550BC301B2010E94CD0DFB
:10113000CA01B90100910501202F30E050E040E0E4
:101140000E94CD0DDA01C90163E0880F991FAA1F23
:10115000BB1F6A95D1F7009761E0A607B10508F0BB
:101160006CC02092A9019093A8018093A70172C03E
:10117000009720E4A207B10558F423E02093A901C9
:1011800036E0B695A795979587953A95D1F75BCEBA
:101190000097A10561E0B60740F424E02093A9017F
:1011A000892F9A2FAB2FBB274ECE0097A10524E0A5
:1011B000B20758F425E02093A9010AE0B695A79557
:1011C000979587950A95D1F73ECE85E08093A90142
:1011D0008FEF9FEF38CE9F5F9093BC01EECECE0194
:1011E00082960E94250426CF8130A9F488E00E94CF
:1011F0003301E0900601F090070100910801109181
:1012000009012DEC3CEC4CEC5DE371CFC801B7015A
:101210000E942A0D73CF823009F0D2C010910501CF
:1012200088E00E943301892B21F01F5F1093050194
:101230006DCF1150FBCF2150CFC0009768E0A607BB
:10124000B10508F088C03092A9015F713093A80100
:101250002093A7018091A7019091A8019093870006
:10126000809386008091A9018061809381008091A4
:10127000B7018093B6018091B501882371F1809107
:10128000B401813009F097C03092B40180E991E057
:101290000E94E3042FB7F8948091AA019091AB01CA
:1012A000A091AC01B091AD012FBF8053984FAF4FCB
:1012B000BF4F8093B8019093B901A093BA01B09346
:1012C000BB010E9498026093B0017093B1018093BA
:1012D000B2019093B3011092B5018091AF018823C0
:1012E00099F18AE991E00E94E3042FB7F894809184
:1012F000AA019091AB01A091AC01B091AD012FBFBB
:101300008053984FAF4FBF4F8093B8019093B9016E
:10131000A093BA01B093BB010E9498026093B00100
:101320007093B1018093B2019093B3011092AE011A
:101330001092B40180EF0E9429030E94BD0280E058
:101340000E9429031092AF01A114B10409F425CE23
:101350000E9400001ECE009720E4A207B10550F4C1
:10136000C092A90146E0B695A795979587954A95AD
:10137000D1F7F9CE0097A10561E0B60740F424E06B
:101380002093A901892F9A2FAB2FBB27ECCED092A7
:10139000A9010097A10524E0B20740F42AE0B69520
:1013A000A795979587952A95D1F7DDCE9092A801BC
:1013B0008092A7014FCF2092B40185E991E068CFD8
:1013C000833009F0A3CE88E00E943301209104010C
:1013D000892B09F430CF2F5F2093040197CE6EE95B
:1013E00071E08FEB91E00E94CA04EFEBF1E08AE03C
:1013F00086838BE0878388E8808784E08387158AEB
:10140000148A80E8E0E1F1E0A5EDB1E001900D92F1
:101410008A95E1F76EE971E085E592E00C94CA04E3
:1014200085E592E00E94DB048FEB91E00C94DB04F5
:10143000EF920F931F93CF93DF93E80134E047FDC2
:1014400034E1042E000C550B57FF03C05195419514
:101450005109E32E022F242FAE010E945B0ACE0118
:10146000DF91CF911F910F91EF900895BB274A30E4
:1014700031F4992322F4BDE2909581959F4F0C940D
:10148000420ABB27FB015527AA27880F991FAA1FCD
:10149000A41710F0A41B83955051B9F7A05DAA338F
:1014A00008F0A95DA193009779F7B111B19311925A
:1014B000CB010C94920CA9E0B0E0E1E6FAE00C94C8
:1014C000F90C6A01F22EB02E102FFBE3AF2EA016FE
:1014D00008F41BE31F5F012F27E0AE014F5F5F4F52
:1014E0000E94BA0BBC018981982F9970913009F440
:1014F0003FC09BE2E1FC04C09E2D9170E0FC3AC02D
:101500005E2D5071E82FE87083FF46C084E0911192
:1015100001C083E0EF2DE81B8F1508F0E0E0D60155
:101520008E2F20E2552351F1992329F0D6019C9367
:10153000C60101966C0196012D5F3F4FE2FE24C06B
:101540008EE4D6018C9391E411969C931197129698
:101550008C93D9018E2F90E281111BC0E20FF32FE3
:10156000F11D10828EEF9FEF2996ECE00C94150D83
:101570009DE2C6CF90E2C4CF2D9381508111FCCF64
:10158000CE0ED11CE0E0D0CF8EE6D6018C9391E652
:10159000DBCF9D938150E0CF482F447082FF3DC048
:1015A00084E0911101C083E08F1510F4EF2DE81B4A
:1015B000D6018E2F20E2552309F1992329F0D60177
:1015C0009C93C60101966C0196012D5F3F4FE2FE90
:1015D0001BC089E4D6018C938EE411968C931197ED
:1015E00086E412968C93D9018E2F90E2882309F419
:1015F000B5CF9D938150FACF2D9381508111FCCFAF
:10160000CE0ED11CE0E0D9CF89E6D6018C938EE6D0
:1016100011968C93119786E6E4CF9B0177FF02C069
:1016200030E020E0A1E0B0E0911102C0B0E0A0E025
:10163000F9013196AE0FBF1F8B2C912CBB2009F402
:1016400061C05401EFEFAE1ABE0AAA0DBB1DFA1617
:101650001B0619F014F04F2D4A1B511188C0E3FCF2
:1016600059C07601A42FB0E2A1114FC0C40ED11C05
:10167000992309F45BC040E0D6011196F6019083EE
:101680006D01552309F448C0012F060F9A81582F88
:10169000507184FF03C0913309F4015010160CF00F
:1016A00047C0093008F008E0EEE2FE2E5B01A01A08
:1016B000B10885019194819491082F3F320729F454
:1016C000D601FC92F60131966F016217730794F10F
:1016D000021713077CF5DB01A21BB30BAA24A3940A
:1016E000B12CAC0EBD1EAA0DBB1D11968C912150C4
:1016F0003109D601119628153905F4F0F6018083D9
:101700006D01DBCFB12CA12CA0CFF701B1937F01EC
:10171000A150AACF9111B0CFD601942F50E302C0AF
:101720005D9391509111FCCFC40ED11C40E0ACCF21
:1017300001E0BACF80E3DBCF6217730731F4963351
:1017400088F4953311F4552369F0F6018083FD0187
:10175000842F90E2811108C0A40FB11D1C9290E06B
:1017600080E002CF81E3F1CF91938150F3CF9111CB
:1017700083CF8ACF283008F027E03327DA01990F8A
:10178000311D87FD916000966105710539F4326065
:101790002E5F3D9330E32A95E1F708959F3F30F0A7
:1017A00080387105610509F03C5F3C5F3D939130E5
:1017B00008F08068911DDF93CF931F930F93FF92E2
:1017C000EF92192F987F9695E92F96959695E90FA8
:1017D000FF27EE53FF4F99273327EE24FF24A7015D
:1017E000E70105900894079428F4360FE71EF81EC9
:1017F000491F511D660F771F881F991F0694A1F777
:101800000590079428F4E70EF81E491F561FC11DC6
:10181000770F881F991F661F0694A1F705900794FC
:1018200028F4F80E491F561FC71FD11D880F991F96
:10183000661F771F0694A1F70590079420F4490FBF
:10184000561FC71FD81F990F661F771F881F069442
:10185000A9F784911095177041F0D695C7955795C3
:101860004795F794E7941A95C1F7E8E6F0E0689495
:101870001590159135916591959105907FE273953D
:10188000E118F10A430B560BC90BD009C0F7E10C64
:10189000F11E431F561FC91FD01D7EF4703311F473
:1018A0008A95E6CFE894015030F0080F0AF400273B
:1018B000021708F4202F2395022F7A3328F079E3BA
:1018C0007D932A95E9F710C07D932A9589F60694B1
:1018D00097956795379517951794E118F10A430B7B
:1018E000560BC90BD00998F023957E9173957A33E6
:1018F00008F070E37C932013B8F77E9170617D93BC
:1019000030F0839571E37D9370E32A95E1F711241C
:10191000EF90FF900F911F91CF91DF91992787FD55
:1019200090950895DC01FC01672F71917723E1F711
:10193000329704C07C916D9370836291AE17BF079C
:10194000C8F3089597F99F6780E870E060E0089514
:101950009FEF80EC089500240A94161617061806C7
:101960000906089500240A941216130614060506A3
:101970000895092E0394000C11F4882352F0BB0F34
:1019800040F4BF2B11F460FF04C06F5F7F4F8F4F97
:101990009F4F089557FD9058440F551F59F05F3FD2
:1019A00071F04795880F97FB991F61F09F3F79F081
:1019B00087950895121613061406551FF2CF469503
:1019C000F1DF08C0161617061806991FF1CF869585
:1019D0007105610508940895E894BB276627772769
:1019E000CB0197F908952F923F924F925F926F9299
:1019F0007F928F929F92AF92BF92CF92DF92EF929F
:101A0000FF920F931F93CF93DF93CDB7DEB7CA1B1F
:101A1000DB0B0FB6F894DEBF0FBECDBF09942A884A
:101A2000398848885F846E847D848C849B84AA84F2
:101A3000B984C884DF80EE80FD800C811B81AA817F
:101A4000B981CE0FD11D0FB6F894DEBF0FBECDBF4A
:101A5000ED0108955058BB27AA270E94420D0C940F
:101A6000B90C0E94AB0C38F00E94B20C20F039F493
:101A70009F3F19F426F40C94A80C0EF4E095E7FBB4
:101A80000C94A20CE92F0E94CA0C58F3BA176207F3
:101A900073078407950720F079F4A6F50C94EC0CF5
:101AA0000EF4E0950B2EBA2FA02D0B01B901900179
:101AB0000C01CA01A0011124FF27591B99F0593FBD
:101AC00050F4503E68F11A16F040A22F232F342F05
:101AD0004427585FF3CF469537952795A795F04053
:101AE0005395C9F77EF41F16BA0B620B730B840B68
:101AF000BAF09150A1F0FF0FBB1F661F771F881F20
:101B0000C2F70EC0BA0F621F731F841F48F4879577
:101B100077956795B795F7959E3F08F0B0CF939569
:101B2000880F08F09927EE0F9795879508950E94E2
:101B30009E0D6894B1110C94ED0C08950E94D20C86
:101B400088F09F5798F0B92F9927B751B0F0E1F07E
:101B5000660F771F881F991F1AF0BA95C9F714C02E
:101B6000B13091F00E94EC0CB1E008950C94EC0CB3
:101B7000672F782F8827B85F39F0B93FCCF3869567
:101B800077956795B395D9F73EF4909580957095C4
:101B900061957F4F8F4F9F4F0895052E97FB1EF441
:101BA00000940E94E40D57FD07D00E94EC0D07FC45
:101BB00003D04EF40C94E40D50954095309521954A
:101BC0003F4F4F4F5F4F0895909580957095619569
:101BD0007F4F8F4F9F4F0895A1E21A2EAA1BBB1B68
:101BE000FD010DC0AA1FBB1FEE1FFF1FA217B307E9
:101BF000E407F50720F0A21BB30BE40BF50B661FFF
:101C0000771F881F991F1A9469F7609570958095C2
:101C100090959B01AC01BD01CF010895EE0FFF1F10
:101C20000590F491E02D09940F931F93CF93DF93C8
:101C30008230910510F482E090E0E0915D02F09135
:101C40005E0230E020E0B0E0A0E0309799F421158A
:101C5000310509F44AC0281B390B24303105D8F569
:101C60008A819B816115710589F1FB0193838283D0
:101C7000FE0111C04081518102811381481759072B
:101C8000E0F04817590799F4109761F012960C93F9
:101C9000129713961C933296CF01DF91CF911F912B
:101CA0000F91089500935D0210935E02F4CF211509
:101CB000310551F04217530738F0A901DB019A01B1
:101CC000BD01DF01F801C1CFEF01F9CF90935E02B2
:101CD00080935D02CDCFFE01E20FF31F81939193BC
:101CE0002250310939832883D7CF20915B0230916C
:101CF0005C02232B41F420910C0130910D013093B3
:101D00005C0220935B0220910A0130910B012115A6
:101D1000310541F42DB73EB740910E0150910F01AE
:101D2000241B350BE0915B02F0915C02E217F30794
:101D3000A0F42E1B3F0B2817390778F0AC014E5F3B
:101D40005F4F2417350748F04E0F5F1F50935C021A
:101D500040935B02819391939FCFF0E0E0E09CCFB2
:101D6000CF93DF930097E9F0FC0132971382128240
:101D7000A0915D02B0915E02ED0130E020E010978D
:101D8000A1F420813181820F931F20915B02309159
:101D90005C022817390709F061C0F0935C02E093F8
:101DA0005B02DF91CF910895EA01CE17DF07E8F5D6
:101DB0004A815B819E0141155105B1F7E901FB8321
:101DC000EA8349915991C40FD51FEC17FD0761F4BF
:101DD000808191810296840F951FE9019983888300
:101DE000828193819B838A83F0E0E0E012968D915B
:101DF0009C9113970097B9F52D913C911197CD01C6
:101E00000296820F931F20915B0230915C0228178B
:101E1000390739F6309751F510925E0210925D0243
:101E2000B0935C02A0935B02BCCFD383C28340819A
:101E30005181840F951FC817D90761F44E5F5F4F1A
:101E400088819981480F591F518340838A819B81E2
:101E5000938382832115310509F0B0CFF0935E02A0
:101E6000E0935D029ECFFD01DC01C0CF13821282A0
:101E7000D7CFB0E0A0E0EFE3FFE00C94F50C8C01CD
:101E8000009751F4CB010E94140E8C01C801CDB70C
:101E9000DEB7E0E10C94110DFC01E60FF71F9C0189
:101EA00022503109E217F30708F49DC0D901CD9102
:101EB000DC911197C617D70798F0C530D10530F3DC
:101EC000CE0104978617970708F3C61BD70B2297F6
:101ED000C193D1936D937C93CF010E94B00ED6CF66
:101EE0005B01AC1ABD0A4C018C0E9D1EA0915D02D7
:101EF000B0915E02512C412CF12CE12C109731F560
:101F000080915B0290915C028815990509F05CC094
:101F10004616570608F058C080910A0190910B01AF
:101F2000009741F48DB79EB740910E0150910F017B
:101F3000841B950BE817F90708F055C0F0935C0275
:101F4000E0935B02F90171836083A0CF8D919C9136
:101F5000119712966C90129713967C901397A81570
:101F6000B90559F56C0142E0C40ED11CCA14DB045A
:101F700020F1AC014A195B09DA011296159780F03D
:101F80006282738251834083D9016D937C93E11403
:101F9000F10471F0D7011396FC93EE93129776CF6C
:101FA00022968C0F9D1FF90191838083F301EFCF5F
:101FB000F0935E02E0935D0269CF4816590608F47B
:101FC0002C017D01D3019ACFCB010E94140E7C011C
:101FD000009749F0AE01B8010E94F60FC8010E94B7
:101FE000B00E870153CF10E000E050CFFB01DC01C1
:101FF00002C001900D9241505040D8F70895FB0166
:10200000DC018D91019080190110D9F3990B08958D
:10201000FB01DC0101900D920020E1F7089510E032
:10202000CFEDD0E004C0FE010E940E0E2196C03E0E
:08203000D107C9F7F894FFCFB6
:102038002803280310010000FC4200005F02800012
:102048000000000000000000000000000000000088
:102058000000000000000000000000000000000078
:10206800000022006D000020390F0000104080524F
:102078003F065B4F666D7D077F6F00000048005389
:1020880000777C395E79713D76301E003800543F08
:102098007367506D783E0000006E5B3964000F086E
:1020A80020777C585E79713D74041E003800545CBA
:1020B8007367506D783E0000006E5B39300F40004A
:1020C8005041555300504C41590053544F50000053
:00000001FF
